{
  "_format": "hh-sol-artifact-1",
  "contractName": "RailgunSmartWallet",
  "sourceName": "contracts/logic/RailgunSmartWallet.sol",
  "abi": [
    {
      "anonymous": false,
      "inputs": [
        {
          "indexed": true,
          "internalType": "address",
          "name": "token",
          "type": "address"
        }
      ],
      "name": "AddToBlocklist",
      "type": "event"
    },
    {
      "anonymous": false,
      "inputs": [
        {
          "indexed": false,
          "internalType": "uint256",
          "name": "shieldFee",
          "type": "uint256"
        },
        {
          "indexed": false,
          "internalType": "uint256",
          "name": "unshieldFee",
          "type": "uint256"
        },
        {
          "indexed": false,
          "internalType": "uint256",
          "name": "nftFee",
          "type": "uint256"
        }
      ],
      "name": "FeeChange",
      "type": "event"
    },
    {
      "anonymous": false,
      "inputs": [
        {
          "indexed": false,
          "internalType": "uint8",
          "name": "version",
          "type": "uint8"
        }
      ],
      "name": "Initialized",
      "type": "event"
    },
    {
      "anonymous": false,
      "inputs": [
        {
          "indexed": false,
          "internalType": "uint16",
          "name": "treeNumber",
          "type": "uint16"
        },
        {
          "indexed": false,
          "internalType": "bytes32[]",
          "name": "nullifier",
          "type": "bytes32[]"
        }
      ],
      "name": "Nullified",
      "type": "event"
    },
    {
      "anonymous": false,
      "inputs": [
        {
          "indexed": true,
          "internalType": "address",
          "name": "previousOwner",
          "type": "address"
        },
        {
          "indexed": true,
          "internalType": "address",
          "name": "newOwner",
          "type": "address"
        }
      ],
      "name": "OwnershipTransferred",
      "type": "event"
    },
    {
      "anonymous": false,
      "inputs": [
        {
          "indexed": true,
          "internalType": "address",
          "name": "token",
          "type": "address"
        }
      ],
      "name": "RemoveFromBlocklist",
      "type": "event"
    },
    {
      "anonymous": false,
      "inputs": [
        {
          "indexed": false,
          "internalType": "uint256",
          "name": "treeNumber",
          "type": "uint256"
        },
        {
          "indexed": false,
          "internalType": "uint256",
          "name": "startPosition",
          "type": "uint256"
        },
        {
          "components": [
            {
              "internalType": "bytes32",
              "name": "npk",
              "type": "bytes32"
            },
            {
              "components": [
                {
                  "internalType": "enum TokenType",
                  "name": "tokenType",
                  "type": "uint8"
                },
                {
                  "internalType": "address",
                  "name": "tokenAddress",
                  "type": "address"
                },
                {
                  "internalType": "uint256",
                  "name": "tokenSubID",
                  "type": "uint256"
                }
              ],
              "internalType": "struct TokenData",
              "name": "token",
              "type": "tuple"
            },
            {
              "internalType": "uint120",
              "name": "value",
              "type": "uint120"
            }
          ],
          "indexed": false,
          "internalType": "struct CommitmentPreimage[]",
          "name": "commitments",
          "type": "tuple[]"
        },
        {
          "components": [
            {
              "internalType": "bytes32[3]",
              "name": "encryptedBundle",
              "type": "bytes32[3]"
            },
            {
              "internalType": "bytes32",
              "name": "shieldKey",
              "type": "bytes32"
            }
          ],
          "indexed": false,
          "internalType": "struct ShieldCiphertext[]",
          "name": "shieldCiphertext",
          "type": "tuple[]"
        },
        {
          "indexed": false,
          "internalType": "uint256[]",
          "name": "fees",
          "type": "uint256[]"
        }
      ],
      "name": "Shield",
      "type": "event"
    },
    {
      "anonymous": false,
      "inputs": [
        {
          "indexed": false,
          "internalType": "uint256",
          "name": "treeNumber",
          "type": "uint256"
        },
        {
          "indexed": false,
          "internalType": "uint256",
          "name": "startPosition",
          "type": "uint256"
        },
        {
          "indexed": false,
          "internalType": "bytes32[]",
          "name": "hash",
          "type": "bytes32[]"
        },
        {
          "components": [
            {
              "internalType": "bytes32[4]",
              "name": "ciphertext",
              "type": "bytes32[4]"
            },
            {
              "internalType": "bytes32",
              "name": "blindedSenderViewingKey",
              "type": "bytes32"
            },
            {
              "internalType": "bytes32",
              "name": "blindedReceiverViewingKey",
              "type": "bytes32"
            },
            {
              "internalType": "bytes",
              "name": "annotationData",
              "type": "bytes"
            },
            {
              "internalType": "bytes",
              "name": "memo",
              "type": "bytes"
            }
          ],
          "indexed": false,
          "internalType": "struct CommitmentCiphertext[]",
          "name": "ciphertext",
          "type": "tuple[]"
        }
      ],
      "name": "Transact",
      "type": "event"
    },
    {
      "anonymous": false,
      "inputs": [
        {
          "indexed": false,
          "internalType": "address",
          "name": "treasury",
          "type": "address"
        }
      ],
      "name": "TreasuryChange",
      "type": "event"
    },
    {
      "anonymous": false,
      "inputs": [
        {
          "indexed": false,
          "internalType": "address",
          "name": "to",
          "type": "address"
        },
        {
          "components": [
            {
              "internalType": "enum TokenType",
              "name": "tokenType",
              "type": "uint8"
            },
            {
              "internalType": "address",
              "name": "tokenAddress",
              "type": "address"
            },
            {
              "internalType": "uint256",
              "name": "tokenSubID",
              "type": "uint256"
            }
          ],
          "indexed": false,
          "internalType": "struct TokenData",
          "name": "token",
          "type": "tuple"
        },
        {
          "indexed": false,
          "internalType": "uint256",
          "name": "amount",
          "type": "uint256"
        },
        {
          "indexed": false,
          "internalType": "uint256",
          "name": "fee",
          "type": "uint256"
        }
      ],
      "name": "Unshield",
      "type": "event"
    },
    {
      "anonymous": false,
      "inputs": [
        {
          "indexed": false,
          "internalType": "uint256",
          "name": "nullifiers",
          "type": "uint256"
        },
        {
          "indexed": false,
          "internalType": "uint256",
          "name": "commitments",
          "type": "uint256"
        },
        {
          "components": [
            {
              "internalType": "string",
              "name": "artifactsIPFSHash",
              "type": "string"
            },
            {
              "components": [
                {
                  "internalType": "uint256",
                  "name": "x",
                  "type": "uint256"
                },
                {
                  "internalType": "uint256",
                  "name": "y",
                  "type": "uint256"
                }
              ],
              "internalType": "struct G1Point",
              "name": "alpha1",
              "type": "tuple"
            },
            {
              "components": [
                {
                  "internalType": "uint256[2]",
                  "name": "x",
                  "type": "uint256[2]"
                },
                {
                  "internalType": "uint256[2]",
                  "name": "y",
                  "type": "uint256[2]"
                }
              ],
              "internalType": "struct G2Point",
              "name": "beta2",
              "type": "tuple"
            },
            {
              "components": [
                {
                  "internalType": "uint256[2]",
                  "name": "x",
                  "type": "uint256[2]"
                },
                {
                  "internalType": "uint256[2]",
                  "name": "y",
                  "type": "uint256[2]"
                }
              ],
              "internalType": "struct G2Point",
              "name": "gamma2",
              "type": "tuple"
            },
            {
              "components": [
                {
                  "internalType": "uint256[2]",
                  "name": "x",
                  "type": "uint256[2]"
                },
                {
                  "internalType": "uint256[2]",
                  "name": "y",
                  "type": "uint256[2]"
                }
              ],
              "internalType": "struct G2Point",
              "name": "delta2",
              "type": "tuple"
            },
            {
              "components": [
                {
                  "internalType": "uint256",
                  "name": "x",
                  "type": "uint256"
                },
                {
                  "internalType": "uint256",
                  "name": "y",
                  "type": "uint256"
                }
              ],
              "internalType": "struct G1Point[]",
              "name": "ic",
              "type": "tuple[]"
            }
          ],
          "indexed": false,
          "internalType": "struct VerifyingKey",
          "name": "verifyingKey",
          "type": "tuple"
        }
      ],
      "name": "VerifyingKeySet",
      "type": "event"
    },
    {
      "inputs": [],
      "name": "ZERO_VALUE",
      "outputs": [
        {
          "internalType": "bytes32",
          "name": "",
          "type": "bytes32"
        }
      ],
      "stateMutability": "view",
      "type": "function"
    },
    {
      "inputs": [
        {
          "internalType": "address[]",
          "name": "_tokens",
          "type": "address[]"
        }
      ],
      "name": "addToBlocklist",
      "outputs": [],
      "stateMutability": "nonpayable",
      "type": "function"
    },
    {
      "inputs": [
        {
          "internalType": "uint256",
          "name": "vector",
          "type": "uint256"
        }
      ],
      "name": "addVector",
      "outputs": [],
      "stateMutability": "nonpayable",
      "type": "function"
    },
    {
      "inputs": [
        {
          "internalType": "uint120",
          "name": "_shieldFee",
          "type": "uint120"
        },
        {
          "internalType": "uint120",
          "name": "_unshieldFee",
          "type": "uint120"
        },
        {
          "internalType": "uint256",
          "name": "_nftFee",
          "type": "uint256"
        }
      ],
      "name": "changeFee",
      "outputs": [],
      "stateMutability": "nonpayable",
      "type": "function"
    },
    {
      "inputs": [
        {
          "internalType": "address payable",
          "name": "_treasury",
          "type": "address"
        }
      ],
      "name": "changeTreasury",
      "outputs": [],
      "stateMutability": "nonpayable",
      "type": "function"
    },
    {
      "inputs": [],
      "name": "checkSafetyVectors",
      "outputs": [],
      "stateMutability": "nonpayable",
      "type": "function"
    },
    {
      "inputs": [
        {
          "internalType": "uint136",
          "name": "_amount",
          "type": "uint136"
        },
        {
          "internalType": "bool",
          "name": "_isInclusive",
          "type": "bool"
        },
        {
          "internalType": "uint120",
          "name": "_feeBP",
          "type": "uint120"
        }
      ],
      "name": "getFee",
      "outputs": [
        {
          "internalType": "uint120",
          "name": "",
          "type": "uint120"
        },
        {
          "internalType": "uint120",
          "name": "",
          "type": "uint120"
        }
      ],
      "stateMutability": "pure",
      "type": "function"
    },
    {
      "inputs": [
        {
          "internalType": "uint256",
          "name": "_newCommitments",
          "type": "uint256"
        }
      ],
      "name": "getInsertionTreeNumberAndStartingIndex",
      "outputs": [
        {
          "internalType": "uint256",
          "name": "",
          "type": "uint256"
        },
        {
          "internalType": "uint256",
          "name": "",
          "type": "uint256"
        }
      ],
      "stateMutability": "view",
      "type": "function"
    },
    {
      "inputs": [
        {
          "components": [
            {
              "internalType": "enum TokenType",
              "name": "tokenType",
              "type": "uint8"
            },
            {
              "internalType": "address",
              "name": "tokenAddress",
              "type": "address"
            },
            {
              "internalType": "uint256",
              "name": "tokenSubID",
              "type": "uint256"
            }
          ],
          "internalType": "struct TokenData",
          "name": "_tokenData",
          "type": "tuple"
        }
      ],
      "name": "getTokenID",
      "outputs": [
        {
          "internalType": "bytes32",
          "name": "",
          "type": "bytes32"
        }
      ],
      "stateMutability": "pure",
      "type": "function"
    },
    {
      "inputs": [
        {
          "internalType": "uint256",
          "name": "_nullifiers",
          "type": "uint256"
        },
        {
          "internalType": "uint256",
          "name": "_commitments",
          "type": "uint256"
        }
      ],
      "name": "getVerificationKey",
      "outputs": [
        {
          "components": [
            {
              "internalType": "string",
              "name": "artifactsIPFSHash",
              "type": "string"
            },
            {
              "components": [
                {
                  "internalType": "uint256",
                  "name": "x",
                  "type": "uint256"
                },
                {
                  "internalType": "uint256",
                  "name": "y",
                  "type": "uint256"
                }
              ],
              "internalType": "struct G1Point",
              "name": "alpha1",
              "type": "tuple"
            },
            {
              "components": [
                {
                  "internalType": "uint256[2]",
                  "name": "x",
                  "type": "uint256[2]"
                },
                {
                  "internalType": "uint256[2]",
                  "name": "y",
                  "type": "uint256[2]"
                }
              ],
              "internalType": "struct G2Point",
              "name": "beta2",
              "type": "tuple"
            },
            {
              "components": [
                {
                  "internalType": "uint256[2]",
                  "name": "x",
                  "type": "uint256[2]"
                },
                {
                  "internalType": "uint256[2]",
                  "name": "y",
                  "type": "uint256[2]"
                }
              ],
              "internalType": "struct G2Point",
              "name": "gamma2",
              "type": "tuple"
            },
            {
              "components": [
                {
                  "internalType": "uint256[2]",
                  "name": "x",
                  "type": "uint256[2]"
                },
                {
                  "internalType": "uint256[2]",
                  "name": "y",
                  "type": "uint256[2]"
                }
              ],
              "internalType": "struct G2Point",
              "name": "delta2",
              "type": "tuple"
            },
            {
              "components": [
                {
                  "internalType": "uint256",
                  "name": "x",
                  "type": "uint256"
                },
                {
                  "internalType": "uint256",
                  "name": "y",
                  "type": "uint256"
                }
              ],
              "internalType": "struct G1Point[]",
              "name": "ic",
              "type": "tuple[]"
            }
          ],
          "internalType": "struct VerifyingKey",
          "name": "",
          "type": "tuple"
        }
      ],
      "stateMutability": "view",
      "type": "function"
    },
    {
      "inputs": [
        {
          "components": [
            {
              "internalType": "uint16",
              "name": "treeNumber",
              "type": "uint16"
            },
            {
              "internalType": "uint72",
              "name": "minGasPrice",
              "type": "uint72"
            },
            {
              "internalType": "enum UnshieldType",
              "name": "unshield",
              "type": "uint8"
            },
            {
              "internalType": "uint64",
              "name": "chainID",
              "type": "uint64"
            },
            {
              "internalType": "address",
              "name": "adaptContract",
              "type": "address"
            },
            {
              "internalType": "bytes32",
              "name": "adaptParams",
              "type": "bytes32"
            },
            {
              "components": [
                {
                  "internalType": "bytes32[4]",
                  "name": "ciphertext",
                  "type": "bytes32[4]"
                },
                {
                  "internalType": "bytes32",
                  "name": "blindedSenderViewingKey",
                  "type": "bytes32"
                },
                {
                  "internalType": "bytes32",
                  "name": "blindedReceiverViewingKey",
                  "type": "bytes32"
                },
                {
                  "internalType": "bytes",
                  "name": "annotationData",
                  "type": "bytes"
                },
                {
                  "internalType": "bytes",
                  "name": "memo",
                  "type": "bytes"
                }
              ],
              "internalType": "struct CommitmentCiphertext[]",
              "name": "commitmentCiphertext",
              "type": "tuple[]"
            }
          ],
          "internalType": "struct BoundParams",
          "name": "_boundParams",
          "type": "tuple"
        }
      ],
      "name": "hashBoundParams",
      "outputs": [
        {
          "internalType": "uint256",
          "name": "",
          "type": "uint256"
        }
      ],
      "stateMutability": "pure",
      "type": "function"
    },
    {
      "inputs": [
        {
          "components": [
            {
              "internalType": "bytes32",
              "name": "npk",
              "type": "bytes32"
            },
            {
              "components": [
                {
                  "internalType": "enum TokenType",
                  "name": "tokenType",
                  "type": "uint8"
                },
                {
                  "internalType": "address",
                  "name": "tokenAddress",
                  "type": "address"
                },
                {
                  "internalType": "uint256",
                  "name": "tokenSubID",
                  "type": "uint256"
                }
              ],
              "internalType": "struct TokenData",
              "name": "token",
              "type": "tuple"
            },
            {
              "internalType": "uint120",
              "name": "value",
              "type": "uint120"
            }
          ],
          "internalType": "struct CommitmentPreimage",
          "name": "_commitmentPreimage",
          "type": "tuple"
        }
      ],
      "name": "hashCommitment",
      "outputs": [
        {
          "internalType": "bytes32",
          "name": "",
          "type": "bytes32"
        }
      ],
      "stateMutability": "pure",
      "type": "function"
    },
    {
      "inputs": [
        {
          "internalType": "bytes32",
          "name": "_left",
          "type": "bytes32"
        },
        {
          "internalType": "bytes32",
          "name": "_right",
          "type": "bytes32"
        }
      ],
      "name": "hashLeftRight",
      "outputs": [
        {
          "internalType": "bytes32",
          "name": "",
          "type": "bytes32"
        }
      ],
      "stateMutability": "pure",
      "type": "function"
    },
    {
      "inputs": [
        {
          "internalType": "address payable",
          "name": "_treasury",
          "type": "address"
        },
        {
          "internalType": "uint120",
          "name": "_shieldFee",
          "type": "uint120"
        },
        {
          "internalType": "uint120",
          "name": "_unshieldFee",
          "type": "uint120"
        },
        {
          "internalType": "uint256",
          "name": "_nftFee",
          "type": "uint256"
        },
        {
          "internalType": "address",
          "name": "_owner",
          "type": "address"
        }
      ],
      "name": "initializeRailgunLogic",
      "outputs": [],
      "stateMutability": "nonpayable",
      "type": "function"
    },
    {
      "inputs": [],
      "name": "lastEventBlock",
      "outputs": [
        {
          "internalType": "uint256",
          "name": "",
          "type": "uint256"
        }
      ],
      "stateMutability": "view",
      "type": "function"
    },
    {
      "inputs": [],
      "name": "merkleRoot",
      "outputs": [
        {
          "internalType": "bytes32",
          "name": "",
          "type": "bytes32"
        }
      ],
      "stateMutability": "view",
      "type": "function"
    },
    {
      "inputs": [],
      "name": "nextLeafIndex",
      "outputs": [
        {
          "internalType": "uint256",
          "name": "",
          "type": "uint256"
        }
      ],
      "stateMutability": "view",
      "type": "function"
    },
    {
      "inputs": [],
      "name": "nftFee",
      "outputs": [
        {
          "internalType": "uint256",
          "name": "",
          "type": "uint256"
        }
      ],
      "stateMutability": "view",
      "type": "function"
    },
    {
      "inputs": [
        {
          "internalType": "uint256",
          "name": "",
          "type": "uint256"
        },
        {
          "internalType": "bytes32",
          "name": "",
          "type": "bytes32"
        }
      ],
      "name": "nullifiers",
      "outputs": [
        {
          "internalType": "bool",
          "name": "",
          "type": "bool"
        }
      ],
      "stateMutability": "view",
      "type": "function"
    },
    {
      "inputs": [],
      "name": "owner",
      "outputs": [
        {
          "internalType": "address",
          "name": "",
          "type": "address"
        }
      ],
      "stateMutability": "view",
      "type": "function"
    },
    {
      "inputs": [
        {
          "internalType": "address[]",
          "name": "_tokens",
          "type": "address[]"
        }
      ],
      "name": "removeFromBlocklist",
      "outputs": [],
      "stateMutability": "nonpayable",
      "type": "function"
    },
    {
      "inputs": [
        {
          "internalType": "uint256",
          "name": "vector",
          "type": "uint256"
        }
      ],
      "name": "removeVector",
      "outputs": [],
      "stateMutability": "nonpayable",
      "type": "function"
    },
    {
      "inputs": [],
      "name": "renounceOwnership",
      "outputs": [],
      "stateMutability": "nonpayable",
      "type": "function"
    },
    {
      "inputs": [
        {
          "internalType": "uint256",
          "name": "",
          "type": "uint256"
        },
        {
          "internalType": "bytes32",
          "name": "",
          "type": "bytes32"
        }
      ],
      "name": "rootHistory",
      "outputs": [
        {
          "internalType": "bool",
          "name": "",
          "type": "bool"
        }
      ],
      "stateMutability": "view",
      "type": "function"
    },
    {
      "inputs": [
        {
          "internalType": "uint256",
          "name": "_nullifiers",
          "type": "uint256"
        },
        {
          "internalType": "uint256",
          "name": "_commitments",
          "type": "uint256"
        },
        {
          "components": [
            {
              "internalType": "string",
              "name": "artifactsIPFSHash",
              "type": "string"
            },
            {
              "components": [
                {
                  "internalType": "uint256",
                  "name": "x",
                  "type": "uint256"
                },
                {
                  "internalType": "uint256",
                  "name": "y",
                  "type": "uint256"
                }
              ],
              "internalType": "struct G1Point",
              "name": "alpha1",
              "type": "tuple"
            },
            {
              "components": [
                {
                  "internalType": "uint256[2]",
                  "name": "x",
                  "type": "uint256[2]"
                },
                {
                  "internalType": "uint256[2]",
                  "name": "y",
                  "type": "uint256[2]"
                }
              ],
              "internalType": "struct G2Point",
              "name": "beta2",
              "type": "tuple"
            },
            {
              "components": [
                {
                  "internalType": "uint256[2]",
                  "name": "x",
                  "type": "uint256[2]"
                },
                {
                  "internalType": "uint256[2]",
                  "name": "y",
                  "type": "uint256[2]"
                }
              ],
              "internalType": "struct G2Point",
              "name": "gamma2",
              "type": "tuple"
            },
            {
              "components": [
                {
                  "internalType": "uint256[2]",
                  "name": "x",
                  "type": "uint256[2]"
                },
                {
                  "internalType": "uint256[2]",
                  "name": "y",
                  "type": "uint256[2]"
                }
              ],
              "internalType": "struct G2Point",
              "name": "delta2",
              "type": "tuple"
            },
            {
              "components": [
                {
                  "internalType": "uint256",
                  "name": "x",
                  "type": "uint256"
                },
                {
                  "internalType": "uint256",
                  "name": "y",
                  "type": "uint256"
                }
              ],
              "internalType": "struct G1Point[]",
              "name": "ic",
              "type": "tuple[]"
            }
          ],
          "internalType": "struct VerifyingKey",
          "name": "_verifyingKey",
          "type": "tuple"
        }
      ],
      "name": "setVerificationKey",
      "outputs": [],
      "stateMutability": "nonpayable",
      "type": "function"
    },
    {
      "inputs": [
        {
          "components": [
            {
              "components": [
                {
                  "internalType": "bytes32",
                  "name": "npk",
                  "type": "bytes32"
                },
                {
                  "components": [
                    {
                      "internalType": "enum TokenType",
                      "name": "tokenType",
                      "type": "uint8"
                    },
                    {
                      "internalType": "address",
                      "name": "tokenAddress",
                      "type": "address"
                    },
                    {
                      "internalType": "uint256",
                      "name": "tokenSubID",
                      "type": "uint256"
                    }
                  ],
                  "internalType": "struct TokenData",
                  "name": "token",
                  "type": "tuple"
                },
                {
                  "internalType": "uint120",
                  "name": "value",
                  "type": "uint120"
                }
              ],
              "internalType": "struct CommitmentPreimage",
              "name": "preimage",
              "type": "tuple"
            },
            {
              "components": [
                {
                  "internalType": "bytes32[3]",
                  "name": "encryptedBundle",
                  "type": "bytes32[3]"
                },
                {
                  "internalType": "bytes32",
                  "name": "shieldKey",
                  "type": "bytes32"
                }
              ],
              "internalType": "struct ShieldCiphertext",
              "name": "ciphertext",
              "type": "tuple"
            }
          ],
          "internalType": "struct ShieldRequest[]",
          "name": "_shieldRequests",
          "type": "tuple[]"
        }
      ],
      "name": "shield",
      "outputs": [],
      "stateMutability": "nonpayable",
      "type": "function"
    },
    {
      "inputs": [],
      "name": "shieldFee",
      "outputs": [
        {
          "internalType": "uint120",
          "name": "",
          "type": "uint120"
        }
      ],
      "stateMutability": "view",
      "type": "function"
    },
    {
      "inputs": [
        {
          "internalType": "uint256",
          "name": "",
          "type": "uint256"
        }
      ],
      "name": "snarkSafetyVector",
      "outputs": [
        {
          "internalType": "bool",
          "name": "",
          "type": "bool"
        }
      ],
      "stateMutability": "view",
      "type": "function"
    },
    {
      "inputs": [
        {
          "components": [
            {
              "components": [
                {
                  "components": [
                    {
                      "internalType": "uint256",
                      "name": "x",
                      "type": "uint256"
                    },
                    {
                      "internalType": "uint256",
                      "name": "y",
                      "type": "uint256"
                    }
                  ],
                  "internalType": "struct G1Point",
                  "name": "a",
                  "type": "tuple"
                },
                {
                  "components": [
                    {
                      "internalType": "uint256[2]",
                      "name": "x",
                      "type": "uint256[2]"
                    },
                    {
                      "internalType": "uint256[2]",
                      "name": "y",
                      "type": "uint256[2]"
                    }
                  ],
                  "internalType": "struct G2Point",
                  "name": "b",
                  "type": "tuple"
                },
                {
                  "components": [
                    {
                      "internalType": "uint256",
                      "name": "x",
                      "type": "uint256"
                    },
                    {
                      "internalType": "uint256",
                      "name": "y",
                      "type": "uint256"
                    }
                  ],
                  "internalType": "struct G1Point",
                  "name": "c",
                  "type": "tuple"
                }
              ],
              "internalType": "struct SnarkProof",
              "name": "proof",
              "type": "tuple"
            },
            {
              "internalType": "bytes32",
              "name": "merkleRoot",
              "type": "bytes32"
            },
            {
              "internalType": "bytes32[]",
              "name": "nullifiers",
              "type": "bytes32[]"
            },
            {
              "internalType": "bytes32[]",
              "name": "commitments",
              "type": "bytes32[]"
            },
            {
              "components": [
                {
                  "internalType": "uint16",
                  "name": "treeNumber",
                  "type": "uint16"
                },
                {
                  "internalType": "uint72",
                  "name": "minGasPrice",
                  "type": "uint72"
                },
                {
                  "internalType": "enum UnshieldType",
                  "name": "unshield",
                  "type": "uint8"
                },
                {
                  "internalType": "uint64",
                  "name": "chainID",
                  "type": "uint64"
                },
                {
                  "internalType": "address",
                  "name": "adaptContract",
                  "type": "address"
                },
                {
                  "internalType": "bytes32",
                  "name": "adaptParams",
                  "type": "bytes32"
                },
                {
                  "components": [
                    {
                      "internalType": "bytes32[4]",
                      "name": "ciphertext",
                      "type": "bytes32[4]"
                    },
                    {
                      "internalType": "bytes32",
                      "name": "blindedSenderViewingKey",
                      "type": "bytes32"
                    },
                    {
                      "internalType": "bytes32",
                      "name": "blindedReceiverViewingKey",
                      "type": "bytes32"
                    },
                    {
                      "internalType": "bytes",
                      "name": "annotationData",
                      "type": "bytes"
                    },
                    {
                      "internalType": "bytes",
                      "name": "memo",
                      "type": "bytes"
                    }
                  ],
                  "internalType": "struct CommitmentCiphertext[]",
                  "name": "commitmentCiphertext",
                  "type": "tuple[]"
                }
              ],
              "internalType": "struct BoundParams",
              "name": "boundParams",
              "type": "tuple"
            },
            {
              "components": [
                {
                  "internalType": "bytes32",
                  "name": "npk",
                  "type": "bytes32"
                },
                {
                  "components": [
                    {
                      "internalType": "enum TokenType",
                      "name": "tokenType",
                      "type": "uint8"
                    },
                    {
                      "internalType": "address",
                      "name": "tokenAddress",
                      "type": "address"
                    },
                    {
                      "internalType": "uint256",
                      "name": "tokenSubID",
                      "type": "uint256"
                    }
                  ],
                  "internalType": "struct TokenData",
                  "name": "token",
                  "type": "tuple"
                },
                {
                  "internalType": "uint120",
                  "name": "value",
                  "type": "uint120"
                }
              ],
              "internalType": "struct CommitmentPreimage",
              "name": "unshieldPreimage",
              "type": "tuple"
            }
          ],
          "internalType": "struct Transaction[]",
          "name": "_transactions",
          "type": "tuple[]"
        }
      ],
      "name": "sumCommitments",
      "outputs": [
        {
          "internalType": "uint256",
          "name": "",
          "type": "uint256"
        }
      ],
      "stateMutability": "pure",
      "type": "function"
    },
    {
      "inputs": [
        {
          "internalType": "address",
          "name": "",
          "type": "address"
        }
      ],
      "name": "tokenBlocklist",
      "outputs": [
        {
          "internalType": "bool",
          "name": "",
          "type": "bool"
        }
      ],
      "stateMutability": "view",
      "type": "function"
    },
    {
      "inputs": [
        {
          "internalType": "bytes32",
          "name": "",
          "type": "bytes32"
        }
      ],
      "name": "tokenIDMapping",
      "outputs": [
        {
          "internalType": "enum TokenType",
          "name": "tokenType",
          "type": "uint8"
        },
        {
          "internalType": "address",
          "name": "tokenAddress",
          "type": "address"
        },
        {
          "internalType": "uint256",
          "name": "tokenSubID",
          "type": "uint256"
        }
      ],
      "stateMutability": "view",
      "type": "function"
    },
    {
      "inputs": [
        {
          "components": [
            {
              "components": [
                {
                  "components": [
                    {
                      "internalType": "uint256",
                      "name": "x",
                      "type": "uint256"
                    },
                    {
                      "internalType": "uint256",
                      "name": "y",
                      "type": "uint256"
                    }
                  ],
                  "internalType": "struct G1Point",
                  "name": "a",
                  "type": "tuple"
                },
                {
                  "components": [
                    {
                      "internalType": "uint256[2]",
                      "name": "x",
                      "type": "uint256[2]"
                    },
                    {
                      "internalType": "uint256[2]",
                      "name": "y",
                      "type": "uint256[2]"
                    }
                  ],
                  "internalType": "struct G2Point",
                  "name": "b",
                  "type": "tuple"
                },
                {
                  "components": [
                    {
                      "internalType": "uint256",
                      "name": "x",
                      "type": "uint256"
                    },
                    {
                      "internalType": "uint256",
                      "name": "y",
                      "type": "uint256"
                    }
                  ],
                  "internalType": "struct G1Point",
                  "name": "c",
                  "type": "tuple"
                }
              ],
              "internalType": "struct SnarkProof",
              "name": "proof",
              "type": "tuple"
            },
            {
              "internalType": "bytes32",
              "name": "merkleRoot",
              "type": "bytes32"
            },
            {
              "internalType": "bytes32[]",
              "name": "nullifiers",
              "type": "bytes32[]"
            },
            {
              "internalType": "bytes32[]",
              "name": "commitments",
              "type": "bytes32[]"
            },
            {
              "components": [
                {
                  "internalType": "uint16",
                  "name": "treeNumber",
                  "type": "uint16"
                },
                {
                  "internalType": "uint72",
                  "name": "minGasPrice",
                  "type": "uint72"
                },
                {
                  "internalType": "enum UnshieldType",
                  "name": "unshield",
                  "type": "uint8"
                },
                {
                  "internalType": "uint64",
                  "name": "chainID",
                  "type": "uint64"
                },
                {
                  "internalType": "address",
                  "name": "adaptContract",
                  "type": "address"
                },
                {
                  "internalType": "bytes32",
                  "name": "adaptParams",
                  "type": "bytes32"
                },
                {
                  "components": [
                    {
                      "internalType": "bytes32[4]",
                      "name": "ciphertext",
                      "type": "bytes32[4]"
                    },
                    {
                      "internalType": "bytes32",
                      "name": "blindedSenderViewingKey",
                      "type": "bytes32"
                    },
                    {
                      "internalType": "bytes32",
                      "name": "blindedReceiverViewingKey",
                      "type": "bytes32"
                    },
                    {
                      "internalType": "bytes",
                      "name": "annotationData",
                      "type": "bytes"
                    },
                    {
                      "internalType": "bytes",
                      "name": "memo",
                      "type": "bytes"
                    }
                  ],
                  "internalType": "struct CommitmentCiphertext[]",
                  "name": "commitmentCiphertext",
                  "type": "tuple[]"
                }
              ],
              "internalType": "struct BoundParams",
              "name": "boundParams",
              "type": "tuple"
            },
            {
              "components": [
                {
                  "internalType": "bytes32",
                  "name": "npk",
                  "type": "bytes32"
                },
                {
                  "components": [
                    {
                      "internalType": "enum TokenType",
                      "name": "tokenType",
                      "type": "uint8"
                    },
                    {
                      "internalType": "address",
                      "name": "tokenAddress",
                      "type": "address"
                    },
                    {
                      "internalType": "uint256",
                      "name": "tokenSubID",
                      "type": "uint256"
                    }
                  ],
                  "internalType": "struct TokenData",
                  "name": "token",
                  "type": "tuple"
                },
                {
                  "internalType": "uint120",
                  "name": "value",
                  "type": "uint120"
                }
              ],
              "internalType": "struct CommitmentPreimage",
              "name": "unshieldPreimage",
              "type": "tuple"
            }
          ],
          "internalType": "struct Transaction[]",
          "name": "_transactions",
          "type": "tuple[]"
        }
      ],
      "name": "transact",
      "outputs": [],
      "stateMutability": "nonpayable",
      "type": "function"
    },
    {
      "inputs": [
        {
          "internalType": "address",
          "name": "newOwner",
          "type": "address"
        }
      ],
      "name": "transferOwnership",
      "outputs": [],
      "stateMutability": "nonpayable",
      "type": "function"
    },
    {
      "inputs": [],
      "name": "treasury",
      "outputs": [
        {
          "internalType": "address payable",
          "name": "",
          "type": "address"
        }
      ],
      "stateMutability": "view",
      "type": "function"
    },
    {
      "inputs": [],
      "name": "treeNumber",
      "outputs": [
        {
          "internalType": "uint256",
          "name": "",
          "type": "uint256"
        }
      ],
      "stateMutability": "view",
      "type": "function"
    },
    {
      "inputs": [],
      "name": "unshieldFee",
      "outputs": [
        {
          "internalType": "uint120",
          "name": "",
          "type": "uint120"
        }
      ],
      "stateMutability": "view",
      "type": "function"
    },
    {
      "inputs": [
        {
          "components": [
            {
              "internalType": "bytes32",
              "name": "npk",
              "type": "bytes32"
            },
            {
              "components": [
                {
                  "internalType": "enum TokenType",
                  "name": "tokenType",
                  "type": "uint8"
                },
                {
                  "internalType": "address",
                  "name": "tokenAddress",
                  "type": "address"
                },
                {
                  "internalType": "uint256",
                  "name": "tokenSubID",
                  "type": "uint256"
                }
              ],
              "internalType": "struct TokenData",
              "name": "token",
              "type": "tuple"
            },
            {
              "internalType": "uint120",
              "name": "value",
              "type": "uint120"
            }
          ],
          "internalType": "struct CommitmentPreimage",
          "name": "_note",
          "type": "tuple"
        }
      ],
      "name": "validateCommitmentPreimage",
      "outputs": [
        {
          "internalType": "bool",
          "name": "",
          "type": "bool"
        },
        {
          "internalType": "string",
          "name": "",
          "type": "string"
        }
      ],
      "stateMutability": "view",
      "type": "function"
    },
    {
      "inputs": [
        {
          "components": [
            {
              "components": [
                {
                  "components": [
                    {
                      "internalType": "uint256",
                      "name": "x",
                      "type": "uint256"
                    },
                    {
                      "internalType": "uint256",
                      "name": "y",
                      "type": "uint256"
                    }
                  ],
                  "internalType": "struct G1Point",
                  "name": "a",
                  "type": "tuple"
                },
                {
                  "components": [
                    {
                      "internalType": "uint256[2]",
                      "name": "x",
                      "type": "uint256[2]"
                    },
                    {
                      "internalType": "uint256[2]",
                      "name": "y",
                      "type": "uint256[2]"
                    }
                  ],
                  "internalType": "struct G2Point",
                  "name": "b",
                  "type": "tuple"
                },
                {
                  "components": [
                    {
                      "internalType": "uint256",
                      "name": "x",
                      "type": "uint256"
                    },
                    {
                      "internalType": "uint256",
                      "name": "y",
                      "type": "uint256"
                    }
                  ],
                  "internalType": "struct G1Point",
                  "name": "c",
                  "type": "tuple"
                }
              ],
              "internalType": "struct SnarkProof",
              "name": "proof",
              "type": "tuple"
            },
            {
              "internalType": "bytes32",
              "name": "merkleRoot",
              "type": "bytes32"
            },
            {
              "internalType": "bytes32[]",
              "name": "nullifiers",
              "type": "bytes32[]"
            },
            {
              "internalType": "bytes32[]",
              "name": "commitments",
              "type": "bytes32[]"
            },
            {
              "components": [
                {
                  "internalType": "uint16",
                  "name": "treeNumber",
                  "type": "uint16"
                },
                {
                  "internalType": "uint72",
                  "name": "minGasPrice",
                  "type": "uint72"
                },
                {
                  "internalType": "enum UnshieldType",
                  "name": "unshield",
                  "type": "uint8"
                },
                {
                  "internalType": "uint64",
                  "name": "chainID",
                  "type": "uint64"
                },
                {
                  "internalType": "address",
                  "name": "adaptContract",
                  "type": "address"
                },
                {
                  "internalType": "bytes32",
                  "name": "adaptParams",
                  "type": "bytes32"
                },
                {
                  "components": [
                    {
                      "internalType": "bytes32[4]",
                      "name": "ciphertext",
                      "type": "bytes32[4]"
                    },
                    {
                      "internalType": "bytes32",
                      "name": "blindedSenderViewingKey",
                      "type": "bytes32"
                    },
                    {
                      "internalType": "bytes32",
                      "name": "blindedReceiverViewingKey",
                      "type": "bytes32"
                    },
                    {
                      "internalType": "bytes",
                      "name": "annotationData",
                      "type": "bytes"
                    },
                    {
                      "internalType": "bytes",
                      "name": "memo",
                      "type": "bytes"
                    }
                  ],
                  "internalType": "struct CommitmentCiphertext[]",
                  "name": "commitmentCiphertext",
                  "type": "tuple[]"
                }
              ],
              "internalType": "struct BoundParams",
              "name": "boundParams",
              "type": "tuple"
            },
            {
              "components": [
                {
                  "internalType": "bytes32",
                  "name": "npk",
                  "type": "bytes32"
                },
                {
                  "components": [
                    {
                      "internalType": "enum TokenType",
                      "name": "tokenType",
                      "type": "uint8"
                    },
                    {
                      "internalType": "address",
                      "name": "tokenAddress",
                      "type": "address"
                    },
                    {
                      "internalType": "uint256",
                      "name": "tokenSubID",
                      "type": "uint256"
                    }
                  ],
                  "internalType": "struct TokenData",
                  "name": "token",
                  "type": "tuple"
                },
                {
                  "internalType": "uint120",
                  "name": "value",
                  "type": "uint120"
                }
              ],
              "internalType": "struct CommitmentPreimage",
              "name": "unshieldPreimage",
              "type": "tuple"
            }
          ],
          "internalType": "struct Transaction",
          "name": "_transaction",
          "type": "tuple"
        }
      ],
      "name": "validateTransaction",
      "outputs": [
        {
          "internalType": "bool",
          "name": "",
          "type": "bool"
        },
        {
          "internalType": "string",
          "name": "",
          "type": "string"
        }
      ],
      "stateMutability": "view",
      "type": "function"
    },
    {
      "inputs": [
        {
          "components": [
            {
              "components": [
                {
                  "components": [
                    {
                      "internalType": "uint256",
                      "name": "x",
                      "type": "uint256"
                    },
                    {
                      "internalType": "uint256",
                      "name": "y",
                      "type": "uint256"
                    }
                  ],
                  "internalType": "struct G1Point",
                  "name": "a",
                  "type": "tuple"
                },
                {
                  "components": [
                    {
                      "internalType": "uint256[2]",
                      "name": "x",
                      "type": "uint256[2]"
                    },
                    {
                      "internalType": "uint256[2]",
                      "name": "y",
                      "type": "uint256[2]"
                    }
                  ],
                  "internalType": "struct G2Point",
                  "name": "b",
                  "type": "tuple"
                },
                {
                  "components": [
                    {
                      "internalType": "uint256",
                      "name": "x",
                      "type": "uint256"
                    },
                    {
                      "internalType": "uint256",
                      "name": "y",
                      "type": "uint256"
                    }
                  ],
                  "internalType": "struct G1Point",
                  "name": "c",
                  "type": "tuple"
                }
              ],
              "internalType": "struct SnarkProof",
              "name": "proof",
              "type": "tuple"
            },
            {
              "internalType": "bytes32",
              "name": "merkleRoot",
              "type": "bytes32"
            },
            {
              "internalType": "bytes32[]",
              "name": "nullifiers",
              "type": "bytes32[]"
            },
            {
              "internalType": "bytes32[]",
              "name": "commitments",
              "type": "bytes32[]"
            },
            {
              "components": [
                {
                  "internalType": "uint16",
                  "name": "treeNumber",
                  "type": "uint16"
                },
                {
                  "internalType": "uint72",
                  "name": "minGasPrice",
                  "type": "uint72"
                },
                {
                  "internalType": "enum UnshieldType",
                  "name": "unshield",
                  "type": "uint8"
                },
                {
                  "internalType": "uint64",
                  "name": "chainID",
                  "type": "uint64"
                },
                {
                  "internalType": "address",
                  "name": "adaptContract",
                  "type": "address"
                },
                {
                  "internalType": "bytes32",
                  "name": "adaptParams",
                  "type": "bytes32"
                },
                {
                  "components": [
                    {
                      "internalType": "bytes32[4]",
                      "name": "ciphertext",
                      "type": "bytes32[4]"
                    },
                    {
                      "internalType": "bytes32",
                      "name": "blindedSenderViewingKey",
                      "type": "bytes32"
                    },
                    {
                      "internalType": "bytes32",
                      "name": "blindedReceiverViewingKey",
                      "type": "bytes32"
                    },
                    {
                      "internalType": "bytes",
                      "name": "annotationData",
                      "type": "bytes"
                    },
                    {
                      "internalType": "bytes",
                      "name": "memo",
                      "type": "bytes"
                    }
                  ],
                  "internalType": "struct CommitmentCiphertext[]",
                  "name": "commitmentCiphertext",
                  "type": "tuple[]"
                }
              ],
              "internalType": "struct BoundParams",
              "name": "boundParams",
              "type": "tuple"
            },
            {
              "components": [
                {
                  "internalType": "bytes32",
                  "name": "npk",
                  "type": "bytes32"
                },
                {
                  "components": [
                    {
                      "internalType": "enum TokenType",
                      "name": "tokenType",
                      "type": "uint8"
                    },
                    {
                      "internalType": "address",
                      "name": "tokenAddress",
                      "type": "address"
                    },
                    {
                      "internalType": "uint256",
                      "name": "tokenSubID",
                      "type": "uint256"
                    }
                  ],
                  "internalType": "struct TokenData",
                  "name": "token",
                  "type": "tuple"
                },
                {
                  "internalType": "uint120",
                  "name": "value",
                  "type": "uint120"
                }
              ],
              "internalType": "struct CommitmentPreimage",
              "name": "unshieldPreimage",
              "type": "tuple"
            }
          ],
          "internalType": "struct Transaction",
          "name": "_transaction",
          "type": "tuple"
        }
      ],
      "name": "verify",
      "outputs": [
        {
          "internalType": "bool",
          "name": "",
          "type": "bool"
        }
      ],
      "stateMutability": "view",
      "type": "function"
    },
    {
      "inputs": [
        {
          "components": [
            {
              "internalType": "string",
              "name": "artifactsIPFSHash",
              "type": "string"
            },
            {
              "components": [
                {
                  "internalType": "uint256",
                  "name": "x",
                  "type": "uint256"
                },
                {
                  "internalType": "uint256",
                  "name": "y",
                  "type": "uint256"
                }
              ],
              "internalType": "struct G1Point",
              "name": "alpha1",
              "type": "tuple"
            },
            {
              "components": [
                {
                  "internalType": "uint256[2]",
                  "name": "x",
                  "type": "uint256[2]"
                },
                {
                  "internalType": "uint256[2]",
                  "name": "y",
                  "type": "uint256[2]"
                }
              ],
              "internalType": "struct G2Point",
              "name": "beta2",
              "type": "tuple"
            },
            {
              "components": [
                {
                  "internalType": "uint256[2]",
                  "name": "x",
                  "type": "uint256[2]"
                },
                {
                  "internalType": "uint256[2]",
                  "name": "y",
                  "type": "uint256[2]"
                }
              ],
              "internalType": "struct G2Point",
              "name": "gamma2",
              "type": "tuple"
            },
            {
              "components": [
                {
                  "internalType": "uint256[2]",
                  "name": "x",
                  "type": "uint256[2]"
                },
                {
                  "internalType": "uint256[2]",
                  "name": "y",
                  "type": "uint256[2]"
                }
              ],
              "internalType": "struct G2Point",
              "name": "delta2",
              "type": "tuple"
            },
            {
              "components": [
                {
                  "internalType": "uint256",
                  "name": "x",
                  "type": "uint256"
                },
                {
                  "internalType": "uint256",
                  "name": "y",
                  "type": "uint256"
                }
              ],
              "internalType": "struct G1Point[]",
              "name": "ic",
              "type": "tuple[]"
            }
          ],
          "internalType": "struct VerifyingKey",
          "name": "_verifyingKey",
          "type": "tuple"
        },
        {
          "components": [
            {
              "components": [
                {
                  "internalType": "uint256",
                  "name": "x",
                  "type": "uint256"
                },
                {
                  "internalType": "uint256",
                  "name": "y",
                  "type": "uint256"
                }
              ],
              "internalType": "struct G1Point",
              "name": "a",
              "type": "tuple"
            },
            {
              "components": [
                {
                  "internalType": "uint256[2]",
                  "name": "x",
                  "type": "uint256[2]"
                },
                {
                  "internalType": "uint256[2]",
                  "name": "y",
                  "type": "uint256[2]"
                }
              ],
              "internalType": "struct G2Point",
              "name": "b",
              "type": "tuple"
            },
            {
              "components": [
                {
                  "internalType": "uint256",
                  "name": "x",
                  "type": "uint256"
                },
                {
                  "internalType": "uint256",
                  "name": "y",
                  "type": "uint256"
                }
              ],
              "internalType": "struct G1Point",
              "name": "c",
              "type": "tuple"
            }
          ],
          "internalType": "struct SnarkProof",
          "name": "_proof",
          "type": "tuple"
        },
        {
          "internalType": "uint256[]",
          "name": "_inputs",
          "type": "uint256[]"
        }
      ],
      "name": "verifyProof",
      "outputs": [
        {
          "internalType": "bool",
          "name": "",
          "type": "bool"
        }
      ],
      "stateMutability": "view",
      "type": "function"
    },
    {
      "inputs": [
        {
          "internalType": "uint256",
          "name": "",
          "type": "uint256"
        }
      ],
      "name": "zeros",
      "outputs": [
        {
          "internalType": "bytes32",
          "name": "",
          "type": "bytes32"
        }
      ],
      "stateMutability": "view",
      "type": "function"
    }
  ],
  "bytecode": "0x608060405234801561001057600080fd5b5061599780620000216000396000f3fe608060405234801561001057600080fd5b50600436106102535760003560e01c806371c5345511610146578063c718dbda116100c3578063e829558811610087578063e8295588146105c5578063ec732959146105d8578063ee990783146105e0578063f19ea903146105f3578063f2fde38b14610621578063f71a55f81461063457600080fd5b8063c718dbda14610555578063cc1f73fd14610583578063cd3efe0614610596578063d8ae136a1461059f578063dc7c9a1f146105b257600080fd5b806392d3c7a41161010a57806392d3c7a4146104bf578063a33952a9146104d2578063ab63e69c146104e5578063b14f2a39146104f8578063b8ceaef21461050b57600080fd5b806371c534551461044f5780637b12ae8314610462578063815b534f146104825780638da5cb5b146104a55780639071adc0146104b657600080fd5b80632ebfe12a116101d4578063617e1b1711610198578063617e1b17146103ed57806361d027b314610400578063665033151461042b5780636cefafaa14610434578063715018a61461044757600080fd5b80632ebfe12a1461036e5780632ec0f3591461038157806338bf282e1461039457806343c88730146103a757806359bb6199146103da57600080fd5b80630c9c0c8d1161021b5780630c9c0c8d146102d6578063129458f4146102fe578063174768911461033157806328f89c3a146103525780632eb4a7ab1461036557600080fd5b806301c3779014610258578063044a40c314610288578063053ed12a1461029d5780630804a4ee146102b75780630be4f422146102bf575b600080fd5b60fa5461026b906001600160781b031681565b6040516001600160781b0390911681526020015b60405180910390f35b61029b610296366004613d8c565b610647565b005b60fa5461026b90600160781b90046001600160781b031681565b61029b610964565b6102c860665481565b60405190815260200161027f565b6102e96102e4366004613e01565b6109f0565b6040805192835260208301919091520161027f565b61032161030c366004613e01565b60fc6020526000908152604090205460ff1681565b604051901515815260200161027f565b61034461033f366004613e1a565b610a3a565b60405161027f929190613ea5565b6102c8610360366004613ec0565b610e9f565b6102c860675481565b61032161037c366004614249565b610eea565b61029b61038f36600461435c565b610f0d565b6102c86103a23660046143b3565b610f7d565b6103ba6103b53660046143ff565b61100f565b604080516001600160781b0393841681529290911660208301520161027f565b6102c86103e836600461449d565b6110a0565b6103446103fb3660046144d2565b611115565b60f954610413906001600160a01b031681565b6040516001600160a01b03909116815260200161027f565b6102c860695481565b61029b610442366004613e01565b6112a0565b61029b6112c3565b6102c861045d36600461455f565b6112d7565b6104756104703660046143b3565b61138b565b60405161027f91906145e7565b6103216104903660046146c3565b60956020526000908152604090205460ff1681565b6033546001600160a01b0316610413565b6102c860fb5481565b6102c86104cd3660046146e0565b611650565b61029b6104e03660046146fc565b61169c565b61029b6104f336600461449d565b611878565b61029b6105063660046146c3565b611998565b610546610519366004613e01565b60fd602052600090815260409020805460019091015460ff82169161010090046001600160a01b03169083565b60405161027f93929190614794565b6103216105633660046143b3565b608a60209081526000928352604080842090915290825290205460ff1681565b61029b6105913660046147be565b611a09565b6102c860fe5481565b61029b6105ad36600461449d565b611bbc565b61029b6105c0366004613e01565b611eac565b6102c86105d3366004613e01565b611ecc565b6102c8611ee3565b6103216105ee366004613e1a565b611f1e565b6103216106013660046143b3565b606560209081526000928352604080842090915290825290205460ff1681565b61029b61062f3660046146c3565b612415565b61029b61064236600461449d565b61248b565b6000816001600160401b0381111561066157610661613efa565b60405190808252806020026020018201604052801561068a578160200160208202803683370190505b5090506000826001600160401b038111156106a7576106a7613efa565b6040519080825280602002602001820160405280156106e057816020015b6106cd613c0c565b8152602001906001900390816106c55790505b5090506000836001600160401b038111156106fd576106fd613efa565b60405190808252806020026020018201604052801561073657816020015b610723613c45565b81526020019060019003908161071b5790505b5090506000846001600160401b0381111561075357610753613efa565b60405190808252806020026020018201604052801561077c578160200160208202803683370190505b50905060005b858110156108fc576000806107b18989858181106107a2576107a26147fa565b90506101200201600001611115565b9150915081816040516020016107c79190614810565b604051602081830303815290604052906107fd5760405162461bcd60e51b81526004016107f4919061484c565b60405180910390fd5b50610822898985818110610813576108136147fa565b905061012002016000016125ae565b878581518110610834576108346147fa565b6020026020010186868151811061084d5761084d6147fa565b6020026020010182815250829052505061087f868481518110610872576108726147fa565b60200260200101516112d7565b878481518110610891576108916147fa565b6020026020010181815250508888848181106108af576108af6147fa565b9050610120020160a0018036038101906108c9919061485f565b8584815181106108db576108db6147fa565b602002602001018190525050506001816108f59190614901565b9050610782565b5060008061090a85516109f0565b915091507f3a5b9dc26075a3801a6ddccf95fec485bb7500a91b44cec1add984c21ee6db3b82828787876040516109459594939291906149e4565b60405180910390a161095686612a35565b50504360fe55505050505050565b7f8dea8703c3cf94703383ce38a9c894669dccd4ca8e65ddb43267aa0248711450805460ff1916600117905533600090815260fc6020526040902054806109ed5760405162461bcd60e51b815260206004820152601c60248201527f5261696c67756e4c6f6769633a20556e7361666520766563746f72730000000060448201526064016107f4565b50565b6000806109ff60106002614b6c565b83606654610a0d9190614901565b1115610a2b57606954610a21906001614901565b9360009350915050565b60695460665491509150915091565b60006060610a4c610160840184614b78565b610a5d906040810190602001614bb1565b68ffffffffffffffffff163a1015610aa157505060408051808201909152601181527047617320707269636520746f6f206c6f7760781b6020820152600092909150565b6000610ab1610160850185614b78565b610ac29060a08101906080016146c3565b6001600160a01b031614158015610b00575033610ae3610160850185614b78565b610af49060a08101906080016146c3565b6001600160a01b031614155b15610b465760006040518060400160405280602081526020017f496e76616c696420416461707420436f6e74726163742061732053656e64657281525091509150915091565b46610b55610160850185614b78565b610b66906080810190606001614be3565b6001600160401b031614610ba557505060408051808201909152601081526f086d0c2d2dc928840dad2e6dac2e8c6d60831b6020820152600092909150565b608a6000610bb7610160860186614b78565b610bc5906020810190614c10565b61ffff16815260208082019290925260409081016000908120610100870135825290925290205460ff16610c27575050604080518082019091526013815272125b9d985b1a590813595c9adb1948149bdbdd606a1b6020820152600092909150565b6000610c37610160850185614b78565b610c48906060810190604001614c2b565b6002811115610c5957610c59614760565b14610dee576001610c6e610140850185614c48565b610c79929150614c91565b610c87610160850185614b78565b610c959060c0810190614c48565b905014610cc057600060405180606001604052806024815260200161593e6024913991509150915091565b60006002610cd2610160860186614b78565b610ce3906060810190604001614c2b565b6002811115610cf457610cf4614760565b03610d50576040805160608101909152338152610d499060208101610d223688900388016101a089016146e0565b8152602001610d3961022088016102008901614ca4565b6001600160781b031690526112d7565b9050610d69565b610d6661045d368690038601610180870161455f565b90505b610d77610140850185614c48565b6001610d87610140880188614c48565b610d92929150614c91565b818110610da157610da16147fa565b905060200201358114610de857600060405180604001604052806015815260200174496e76616c6964205769746864726177204e6f746560581b8152509250925050915091565b50610e45565b610dfc610140840184614c48565b9050610e0c610160850185614b78565b610e1a9060c0810190614c48565b905014610e4557600060405180606001604052806024815260200161593e6024913991509150915091565b610e4e83611f1e565b610e8657505060408051808201909152601381527224b73b30b634b21029b730b93590283937b7b360691b6020820152600092909150565b5050604080516020810190915260008152600192909150565b600060008051602061591e83398151915282604051602001610ec19190614e38565b6040516020818303038152906040528051906020012060001c610ee49190614f02565b92915050565b6000610f0584610eff36869003860186614f16565b84612cca565b949350505050565b610f15612e3d565b600083815260c76020908152604080832085845290915290208190610f3a82826151ef565b9050507f3d09e10d1c966d01c4a2c14d0ac9af253486aa5e99b6cffe9019c4d43eb1fb23838383604051610f70939291906152f2565b60405180910390a1505050565b60408051808201825283815260208101839052905163014cf2b360e51b815260009173__$6e606460795bf5f7b62cf6c7a6a553ac5e$__9163299e566091610fc7916004016153d3565b602060405180830381865af4158015610fe4573d6000803e3d6000fd5b505050506040513d601f19601f820116820180604052508101906110089190615404565b9392505050565b6000806000808515611058576127106110316001600160781b0387168961541d565b61103b9190615446565b611045908861546c565b9150611051828861546c565b9050611094565b8691508161106886612710615493565b6001600160781b031661107d8461271061541d565b6110879190615446565b611091919061546c565b90505b90969095509350505050565b600080805b8381101561110d578484828181106110bf576110bf6147fa565b90506020028101906110d191906154b3565b6110e090610160810190614b78565b6110ee9060c0810190614c48565b6110f9915083614901565b9150611106600182614901565b90506110a5565b509392505050565b6000606061112960a0840160808501614ca4565b6001600160781b031660000361116c575050604080518082019091526012815271496e76616c6964204e6f74652056616c756560701b6020820152600092909150565b6095600061118060608601604087016146c3565b6001600160a01b0316815260208101919091526040016000205460ff16156111d45750506040805180820190915260118152702ab739bab83837b93a32b2102a37b5b2b760791b6020820152600092909150565b60008051602061591e83398151915283351061121b57505060408051808201909152601081526f496e76616c6964204e6f7465204e504b60801b6020820152600092909150565b600161122d6040850160208601614c2b565b600281111561123e5761123e614760565b148015611264575061125660a0840160808501614ca4565b6001600160781b0316600114155b15610e86575050604080518082019091526016815275496e76616c6964204e4654204e6f74652056616c756560501b6020820152600092909150565b6112a8612e3d565b600090815260fc60205260409020805460ff19166001179055565b6112cb612e3d565b6112d56000612e97565b565b600073__$0d67abb2a30631c14ae5d39aeb2a4b8972$__635a53025d6040518060600160405280856000015181526020016113158660200151611650565b815260200185604001516001600160781b031660001b8152506040518263ffffffff1660e01b815260040161134a91906154ca565b602060405180830381865af4158015611367573d6000803e3d6000fd5b505050506040513d601f19601f82011682018060405250810190610ee49190615404565b611393613c58565b600083815260c76020908152604080832085845290915290819020815160c081019092528054829082906113c690614f5c565b80601f01602080910402602001604051908101604052809291908181526020018280546113f290614f5c565b801561143f5780601f106114145761010080835404028352916020019161143f565b820191906000526020600020905b81548152906001019060200180831161142257829003601f168201915b505050918352505060408051808201825260018401548152600280850154602080840191909152840191909152815160808101808452938301939092600386019284929183019184919082845b81548152602001906001019080831161148c57505050918352505060408051808201918290526020909201919060028481019182845b8154815260200190600101908083116114c2575050509190925250505081526040805160808101808352602090930192909160078501918391820190839060029082845b81548152602001906001019080831161150657505050918352505060408051808201918290526020909201919060028481019182845b81548152602001906001019080831161153c5750505091909252505050815260408051608081018083526020909301929091600b8501918391820190839060029082845b81548152602001906001019080831161158057505050918352505060408051808201918290526020909201919060028481019182845b8154815260200190600101908083116115b6575050505050815250508152602001600f8201805480602002602001604051908101604052809291908181526020016000905b82821015611641578382906000526020600020906002020160405180604001604052908160008201548152602001600182015481525050815260200190600101906115fb565b50505091525090949350505050565b6000808251600281111561166657611666614760565b0361167c5750602001516001600160a01b031690565b60008051602061591e83398151915282604051602001610ec191906154f2565b600054610100900460ff16158080156116bc5750600054600160ff909116105b806116d65750303b1580156116d6575060005460ff166001145b6117395760405162461bcd60e51b815260206004820152602e60248201527f496e697469616c697a61626c653a20636f6e747261637420697320616c72656160448201526d191e481a5b9a5d1a585b1a5e995960921b60648201526084016107f4565b6000805460ff19166001179055801561175c576000805461ff0019166101001790555b611764612ee9565b61176c612f18565b61177586611998565b611780858585611a09565b61178982612415565b60fc6020527f18a261e1efd282dd636becf59b85995514ab34d1c1c9a3e1128aac786b5472de8054600160ff1991821681179092557f35cc25be27a7e44e9e6eb23f103c8980fe6d01e7b6e981c2c07b23911ac79e8b805482168317905573cc29dbf69896278a0c6b886ef8cc30a56fa6164a6000527f7e1bfa3bd01233beed03b737790a265ae14e11664e22f82316c6f65a13e15c8c805490911690911790558015611870576000805461ff0019169055604051600181527f7f26b83ff96e1f2b6a682f133852f6798a09c465da95921460cefb38474024989060200160405180910390a15b505050505050565b611880612e3d565b60005b8181101561199357609560008484848181106118a1576118a16147fa565b90506020020160208101906118b691906146c3565b6001600160a01b0316815260208101919091526040016000205460ff161561198157609560008484848181106118ee576118ee6147fa565b905060200201602081019061190391906146c3565b6001600160a01b031681526020810191909152604001600020805460ff19169055828282818110611936576119366147fa565b905060200201602081019061194b91906146c3565b6001600160a01b03167f2ef13bd1aff17b0f9c85afaf228e84266c8394d9d381735e83fe23f607113e2e60405160405180910390a25b61198c600182614901565b9050611883565b505050565b6119a0612e3d565b60f9546001600160a01b038281169116146109ed5760f980546001600160a01b0319166001600160a01b0383169081179091556040519081527f1ac54af2084ba0e4b86b7bc54b978ce7dd4ca046d3dec89d7c8963873820c0bb9060200160405180910390a150565b611a11612e3d565b60fa546001600160781b038481169116141580611a43575060fa546001600160781b03838116600160781b9092041614155b80611a50575060fb548114155b1561199357611a626002612710615500565b6001600160781b0316836001600160781b03161115611acf5760405162461bcd60e51b8152602060048201526024808201527f5261696c67756e4c6f6769633a20536869656c642046656520657863656564736044820152632035302560e01b60648201526084016107f4565b611adc6002612710615500565b6001600160781b0316826001600160781b03161115611b4c5760405162461bcd60e51b815260206004820152602660248201527f5261696c67756e4c6f6769633a20556e736869656c642046656520657863656560448201526564732035302560d01b60648201526084016107f4565b60fa80546001600160781b038581166001600160f01b03199092168217600160781b9186169182021790925560fb8390556040805191825260208201929092529081018290527f472cfc031d19bcc54db01976ce486cc12dc3d489e6adced1eb5a782cd55cfdf290606001610f70565b6000611bc883836110a0565b90506000816001600160401b03811115611be457611be4613efa565b604051908082528060200260200182016040528015611c0d578160200160208202803683370190505b509050600080836001600160401b03811115611c2b57611c2b613efa565b604051908082528060200260200182016040528015611c6457816020015b611c51613cbb565b815260200190600190039081611c495790505b50905060005b85811015611d2757600080611c9c898985818110611c8a57611c8a6147fa565b905060200281019061033f91906154b3565b915091508181604051602001611cb29190614810565b60405160208183030381529060405290611cdf5760405162461bcd60e51b81526004016107f4919061484c565b50611d0f898985818110611cf557611cf56147fa565b9050602002810190611d0791906154b3565b87878761303f565b94505050600181611d209190614901565b9050611c6a565b5060005b85811015611e4b576000878783818110611d4757611d476147fa565b9050602002810190611d5991906154b3565b611d6890610160810190614b78565b611d79906060810190604001614c2b565b6002811115611d8a57611d8a614760565b14611e3957600080611dc2898985818110611da757611da76147fa565b9050602002810190611db991906154b3565b61018001611115565b915091508181604051602001611dd89190614810565b60405160208183030381529060405290611e055760405162461bcd60e51b81526004016107f4919061484c565b50611e36898985818110611e1b57611e1b6147fa565b9050602002810190611e2d91906154b3565b61018001613329565b50505b611e44600182614901565b9050611d2b565b50600080611e5985516109f0565b8651919350915015611ea3577f56a618cda1e34057b7f849a5792f6c8587a2dbe11c83d0254e72cb3daffda7d182828786604051611e9a949392919061551a565b60405180910390a15b61095685612a35565b611eb4612e3d565b600090815260fc60205260409020805460ff19169055565b606a8160108110611edc57600080fd5b0154905081565b611f1b60008051602061591e8339815191527f95b5e3f3c951508f13e7771152f5b7c7329a294917685c10a571c9247e3b9fff614f02565b81565b600080611f2f610120840184614c48565b915060009050611f43610140850185614c48565b600084815260c760209081526040808320848452909152808220815160c0810190925280549395509193509182908290611f7c90614f5c565b80601f0160208091040260200160405190810160405280929190818152602001828054611fa890614f5c565b8015611ff55780601f10611fca57610100808354040283529160200191611ff5565b820191906000526020600020905b815481529060010190602001808311611fd857829003601f168201915b505050918352505060408051808201825260018401548152600280850154602080840191909152840191909152815160808101808452938301939092600386019284929183019184919082845b81548152602001906001019080831161204257505050918352505060408051808201918290526020909201919060028481019182845b815481526020019060010190808311612078575050509190925250505081526040805160808101808352602090930192909160078501918391820190839060029082845b8154815260200190600101908083116120bc57505050918352505060408051808201918290526020909201919060028481019182845b8154815260200190600101908083116120f25750505091909252505050815260408051608081018083526020909301929091600b8501918391820190839060029082845b81548152602001906001019080831161213657505050918352505060408051808201918290526020909201919060028481019182845b81548152602001906001019080831161216c575050505050815250508152602001600f8201805480602002602001604051908101604052809291908181526020016000905b828210156121f7578382906000526020600020906002020160405180604001604052908160008201548152602001600182015481525050815260200190600101906121b1565b5050509152505060208101515190915060000361224e5760405162461bcd60e51b815260206004820152601560248201527415995c9a599a595c8e8812d95e481b9bdd081cd95d605a1b60448201526064016107f4565b60008261225c856002614901565b6122669190614901565b6001600160401b0381111561227d5761227d613efa565b6040519080825280602002602001820160405280156122a6578160200160208202803683370190505b50905085610100013560001c816000815181106122c5576122c56147fa565b60209081029190910101526122e1610360610160880188614b78565b816001815181106122f4576122f46147fa565b60200260200101818152505060005b8481101561236c57612319610120880188614c48565b82818110612329576123296147fa565b602002919091013590508261233f836002614901565b8151811061234f5761234f6147fa565b6020908102919091010152612365600182614901565b9050612303565b5060005b838110156123e457612386610140880188614c48565b82818110612396576123966147fa565b6020029190910135905082826123ad886002614901565b6123b79190614901565b815181106123c7576123c76147fa565b60209081029190910101526123dd600182614901565b9050612370565b5060006123f2838884610eea565b905061deac19320161240b575060019695505050505050565b9695505050505050565b61241d612e3d565b6001600160a01b0381166124825760405162461bcd60e51b815260206004820152602660248201527f4f776e61626c653a206e6577206f776e657220697320746865207a65726f206160448201526564647265737360d01b60648201526084016107f4565b6109ed81612e97565b612493612e3d565b60005b8181101561199357609560008484848181106124b4576124b46147fa565b90506020020160208101906124c991906146c3565b6001600160a01b0316815260208101919091526040016000205460ff1661259c57600160956000858585818110612502576125026147fa565b905060200201602081019061251791906146c3565b6001600160a01b031681526020810191909152604001600020805460ff1916911515919091179055828282818110612551576125516147fa565b905060200201602081019061256691906146c3565b6001600160a01b03167f46742f555939247f80b50a8ca895a561933c48bc9a06ccb0c812e97ac723d33f60405160405180910390a25b6125a7600182614901565b9050612496565b6125b6613c0c565b60006125c0613c0c565b6000806125d36040870160208801614c2b565b60028111156125e4576125e4614760565b0361280d5760006125fb60608701604088016146c3565b905060008061262b61261360a08a0160808b01614ca4565b60fa546001600160781b03918216916001911661100f565b91509150806001600160781b031693506040518060600160405280896000013581526020018960200180360381019061266491906146e0565b81526001600160781b0384166020909101526040516370a0823160e01b81523060048201529095506000906001600160a01b038516906370a0823190602401602060405180830381865afa1580156126c0573d6000803e3d6000fd5b505050506040513d601f19601f820116820180604052508101906126e49190615404565b90506127046001600160a01b03851633306001600160781b03871661351a565b6040516370a0823160e01b81523060048201526000906001600160a01b038616906370a0823190602401602060405180830381865afa15801561274b573d6000803e3d6000fd5b505050506040513d601f19601f8201168201806040525081019061276f9190615404565b90506001600160781b0384166127858383614c91565b146127de5760405162461bcd60e51b815260206004820152602360248201527f5261696c67756e4c6f6769633a204552433230207472616e73666572206661696044820152621b195960ea1b60648201526084016107f4565b60f954612803906001600160a01b03878116913391166001600160781b03871661351a565b5050505050612a2b565b600161281f6040870160208801614c2b565b600281111561283057612830614760565b036129d357600061284760608701604088016146c3565b60009250905061285c3687900387018761455f565b92506020860160fd60006128786104cd368b90038b01856146e0565b81526020019081526020016000208181612892919061562f565b50506040516323b872dd60e01b8152336004820152306024820152606087013560448201526001600160a01b038216906323b872dd90606401600060405180830381600087803b1580156128e557600080fd5b505af11580156128f9573d6000803e3d6000fd5b50506040516331a9108f60e11b8152606089013560048201523092506001600160a01b0384169150636352211e90602401602060405180830381865afa158015612947573d6000803e3d6000fd5b505050506040513d601f19601f8201168201806040525081019061296b9190615695565b6001600160a01b0316146129cd5760405162461bcd60e51b8152602060048201526024808201527f5261696c67756e4c6f6769633a20455243373231206469646e2774207472616e60448201526339b332b960e11b60648201526084016107f4565b50612a2b565b60405162461bcd60e51b815260206004820152602760248201527f5261696c67756e4c6f6769633a2045524331313535206e6f74207965742073756044820152661c1c1bdc9d195960ca1b60648201526084016107f4565b9094909350915050565b80516000819003612a44575050565b612a5060106002614b6c565b81606654612a5e9190614901565b1115612a6c57612a6c61358b565b606680549082906000612a7f8385614901565b909155506000905080805b6010811015612c7957600184901c91506000612aa7600286614f02565b600103612b2d57612abc83600187901c614c91565b9350612af5607a8360108110612ad457612ad46147fa565b0154888381518110612ae857612ae86147fa565b6020026020010151610f7d565b878581518110612b0757612b076147fa565b6020908102919091010152612b1d600182614901565b9050612b2a600186614901565b94505b85811015612c53576000612b42600188614c91565b821015612b745787612b55836001614901565b81518110612b6557612b656147fa565b60200260200101519050612b8c565b606a8360108110612b8757612b876147fa565b015490505b612b97600188614c91565b821480612bad5750612baa600288614c91565b82145b15612be257878281518110612bc457612bc46147fa565b6020026020010151607a8460108110612bdf57612bdf6147fa565b01555b612bf084600188901c614c91565b9450612c15888381518110612c0757612c076147fa565b602002602001015182610f7d565b888681518110612c2757612c276147fa565b6020908102919091010152612c3d600287614901565b9550612c4c9050600282614901565b9050612b2d565b829450836001612c639190614901565b9550612c729050600182614901565b9050612a8a565b5084600081518110612c8d57612c8d6147fa565b60209081029190910181015160678190556069546000908152608a83526040808220928252919092529020805460ff191660011790555050505050565b6040805180820190915260008082526020820181905290815b8351811015612dd55760008051602061591e833981519152848281518110612d0d57612d0d6147fa565b602002602001015110612d6c5760405162461bcd60e51b815260206004820152602160248201527f536e61726b3a20496e707574203e20534e41524b5f5343414c41525f4649454c6044820152601160fa1b60648201526084016107f4565b612dc182612dbc8860a00151846001612d859190614901565b81518110612d9557612d956147fa565b6020026020010151878581518110612daf57612daf6147fa565b60200260200101516135b2565b613656565b9150612dce600182614901565b9050612ce3565b50612dfe818660a00151600081518110612df157612df16147fa565b6020026020010151613656565b9050612e34612e1085600001516136f6565b856020015187602001518860400151858a606001518a604001518c60800151613838565b95945050505050565b6033546001600160a01b031633146112d55760405162461bcd60e51b815260206004820181905260248201527f4f776e61626c653a2063616c6c6572206973206e6f7420746865206f776e657260448201526064016107f4565b603380546001600160a01b038381166001600160a01b0319831681179093556040519116919082907f8be0079c531659141344cd1fd0a4f28419497f9722a3daafe3b4186f6b6457e090600090a35050565b600054610100900460ff16612f105760405162461bcd60e51b81526004016107f4906156b2565b6112d56139b4565b600054610100900460ff16612f3f5760405162461bcd60e51b81526004016107f4906156b2565b612f7760008051602061591e8339815191527f95b5e3f3c951508f13e7771152f5b7c7329a294917685c10a571c9247e3b9fff614f02565b606a556000612fb460008051602061591e8339815191527f95b5e3f3c951508f13e7771152f5b7c7329a294917685c10a571c9247e3b9fff614f02565b905060005b601081101561300c5781606a8260108110612fd657612fd66147fa565b015581607a8260108110612fec57612fec6147fa565b0155612ff88280610f7d565b9150613005600182614901565b9050612fb9565b50606781905560688190556069546000908152608a6020908152604080832093835292905220805460ff19166001179055565b6000805b613051610120870187614c48565b90508110156131aa576065600061306c610160890189614b78565b61307a906020810190614c10565b61ffff16815260200190815260200160002060008780610120019061309f9190614c48565b848181106130af576130af6147fa565b602090810292909201358352508101919091526040016000205460ff16156131195760405162461bcd60e51b815260206004820181905260248201527f5261696c67756e4c6f6769633a204e6f746520616c7265616479207370656e7460448201526064016107f4565b60016065600061312d6101608a018a614b78565b61313b906020810190614c10565b61ffff1681526020019081526020016000206000888061012001906131609190614c48565b85818110613170576131706147fa565b60209081029290920135835250810191909152604001600020805460ff19169115159190911790556131a3600182614901565b9050613043565b507f781745c57906dc2f175fec80a9c691744c91c48a34a83672c41c2604774eb11f6131da610160870187614b78565b6131e8906020810190614c10565b6131f6610120880188614c48565b604051613205939291906156fd565b60405180910390a160005b61321e610160870187614b78565b61322c9060c0810190614c48565b905081101561330157613243610140870187614c48565b82818110613253576132536147fa565b905060200201358582866132679190614901565b81518110613277576132776147fa565b6020908102919091010152613290610160870187614b78565b61329e9060c0810190614c48565b828181106132ae576132ae6147fa565b90506020028101906132c09190615742565b6132c990615758565b836132d48387614901565b815181106132e4576132e46147fa565b60209081029190910101526132fa600182614901565b9050613210565b50613310610160860186614b78565b61331e9060c0810190614c48565b612e34915084614901565b600061333b6040830160208401614c2b565b600281111561334c5761334c614760565b0361342857600061336360608301604084016146c3565b905060008061339a61337b60a0860160808701614ca4565b60fa546001600160781b0391821691600191600160781b90041661100f565b90925090506133bd6001600160a01b03841685356001600160781b0385166139e4565b60f9546133e0906001600160a01b0385811691166001600160781b0384166139e4565b6040517fd93cf895c7d5b2cd7dc7a098b678b3089f37d91f48d9b83a0800a91cbdf052849061341a90863590602088019086908690615860565b60405180910390a150505050565b600161343a6040830160208401614c2b565b600281111561344b5761344b614760565b036129d357600061346260608301604084016146c3565b6040516323b872dd60e01b81523060048201526001600160a01b0384358116602483015260608501356044830152919250908216906323b872dd90606401600060405180830381600087803b1580156134ba57600080fd5b505af11580156134ce573d6000803e3d6000fd5b50506040517fd93cf895c7d5b2cd7dc7a098b678b3089f37d91f48d9b83a0800a91cbdf05284925061350e9150843590602086019060019060009061589f565b60405180910390a15050565b6040516001600160a01b03808516602483015283166044820152606481018290526135859085906323b872dd60e01b906084015b60408051601f198184030181529190526020810180516001600160e01b03166001600160e01b031990931692909217909152613a14565b50505050565b6068546067556000606681905560698054600192906135ab908490614901565b9091555050565b60408051808201909152600080825260208201526135ce613cef565b835181526020808501519082015260408082018490526000908360608460076107d05a03fa90508061364e5760405162461bcd60e51b815260206004820152602360248201527f536e61726b3a205363616c6172204d756c7469706c69636174696f6e204661696044820152621b195960ea1b60648201526084016107f4565b505092915050565b6040805180820190915260008082526020820152613672613d0d565b83518152602080850151818301528351604080840191909152848201516060840152805180820182526000808252928101839052908160808560066107d05a03fa915081612e345760405162461bcd60e51b815260206004820152601160248201527014db985c9ace881059190811985a5b1959607a1b60448201526064016107f4565b6040805180820190915260008082526020820152815115801561371b57506020820151155b15613739575050604080518082019091526000808252602082015290565b60006000805160206158fe8339815191528351800990506000805160206158fe8339815191528351820990506000805160206158fe83398151915260038208905060006000805160206158fe8339815191526020850151800990508181146137e35760405162461bcd60e51b815260206004820152601760248201527f536e61726b3a20496e76616c6964206e65676174696f6e00000000000000000060448201526064016107f4565b6040518060400160405280856000015181526020016000805160206158fe83398151915286602001516138169190614f02565b61382e906000805160206158fe833981519152614c91565b9052949350505050565b6040805161030081018252895181526020808b015181830152895151928201929092528851820151606082015288820180515160808301525182015160a0820152875160c08201528782015160e08201528651516101008201528651820151610120820152868201805151610140830152518201516101608201528551610180820152858201516101a08201528451516101c082015284518201516101e08201528482018051516102008301525182015161022082015283516102408201528382015161026082015282515161028082015282518201516102a08201528282018051516102c083015251909101516102e0820152600090613937613d2b565b60006020826103008560086107d05a03fa9050806139a25760405162461bcd60e51b815260206004820152602260248201527f536e61726b3a2050616972696e6720566572696669636174696f6e204661696c604482015261195960f21b60648201526084016107f4565b505115159a9950505050505050505050565b600054610100900460ff166139db5760405162461bcd60e51b81526004016107f4906156b2565b6112d533612e97565b6040516001600160a01b03831660248201526044810182905261199390849063a9059cbb60e01b9060640161354e565b6000613a69826040518060400160405280602081526020017f5361666545524332303a206c6f772d6c6576656c2063616c6c206661696c6564815250856001600160a01b0316613ae99092919063ffffffff16565b9050805160001480613a8a575080806020019051810190613a8a91906158ce565b6119935760405162461bcd60e51b815260206004820152602a60248201527f5361666545524332303a204552433230206f7065726174696f6e20646964206e6044820152691bdd081cdd58d8d9595960b21b60648201526084016107f4565b6060610f05848460008585600080866001600160a01b03168587604051613b1091906158eb565b60006040518083038185875af1925050503d8060008114613b4d576040519150601f19603f3d011682016040523d82523d6000602084013e613b52565b606091505b5091509150613b6387838387613b6e565b979650505050505050565b60608315613bdd578251600003613bd6576001600160a01b0385163b613bd65760405162461bcd60e51b815260206004820152601d60248201527f416464726573733a2063616c6c20746f206e6f6e2d636f6e747261637400000060448201526064016107f4565b5081610f05565b610f058383815115613bf25781518083602001fd5b8060405162461bcd60e51b81526004016107f4919061484c565b604080516060808201835260008083528351918201845280825260208281018290529382015290918201905b8152600060209091015290565b6040518060400160405280613c38613cef565b6040518060c0016040528060608152602001613c87604051806040016040528060008152602001600081525090565b8152602001613c94613d49565b8152602001613ca1613d49565b8152602001613cae613d49565b8152602001606081525090565b6040518060a00160405280613cce613d0d565b81526000602082018190526040820152606080820181905260809091015290565b60405180606001604052806003906020820280368337509192915050565b60405180608001604052806004906020820280368337509192915050565b60405180602001604052806001906020820280368337509192915050565b6040518060400160405280613d5c613d6e565b8152602001613d69613d6e565b905290565b60405180604001604052806002906020820280368337509192915050565b60008060208385031215613d9f57600080fd5b82356001600160401b0380821115613db657600080fd5b818501915085601f830112613dca57600080fd5b813581811115613dd957600080fd5b86602061012083028501011115613def57600080fd5b60209290920196919550909350505050565b600060208284031215613e1357600080fd5b5035919050565b600060208284031215613e2c57600080fd5b81356001600160401b03811115613e4257600080fd5b8201610220818503121561100857600080fd5b60005b83811015613e70578181015183820152602001613e58565b50506000910152565b60008151808452613e91816020860160208601613e55565b601f01601f19169290920160200192915050565b8215158152604060208201526000610f056040830184613e79565b600060208284031215613ed257600080fd5b81356001600160401b03811115613ee857600080fd5b820160e0818503121561100857600080fd5b634e487b7160e01b600052604160045260246000fd5b604080519081016001600160401b0381118282101715613f3257613f32613efa565b60405290565b60405160c081016001600160401b0381118282101715613f3257613f32613efa565b604051606081016001600160401b0381118282101715613f3257613f32613efa565b60405160a081016001600160401b0381118282101715613f3257613f32613efa565b604051608081016001600160401b0381118282101715613f3257613f32613efa565b604051601f8201601f191681016001600160401b0381118282101715613fe857613fe8613efa565b604052919050565b600082601f83011261400157600080fd5b81356001600160401b0381111561401a5761401a613efa565b61402d601f8201601f1916602001613fc0565b81815284602083860101111561404257600080fd5b816020850160208301376000918101602001919091529392505050565b60006040828403121561407157600080fd5b614079613f10565b9050813581526020820135602082015292915050565b600082601f8301126140a057600080fd5b604051604081018181106001600160401b03821117156140c2576140c2613efa565b80604052508060408401858111156140d957600080fd5b845b818110156140f35780358352602092830192016140db565b509195945050505050565b60006080828403121561411057600080fd5b614118613f10565b9050614124838361408f565b8152614133836040840161408f565b602082015292915050565b60006001600160401b0382111561415757614157613efa565b5060051b60200190565b600082601f83011261417257600080fd5b813560206141876141828361413e565b613fc0565b82815260069290921b840181019181810190868411156141a657600080fd5b8286015b848110156141ca576141bc888261405f565b8352918301916040016141aa565b509695505050505050565b600061010082840312156141e857600080fd5b50919050565b600082601f8301126141ff57600080fd5b8135602061420f6141828361413e565b82815260059290921b8401810191818101908684111561422e57600080fd5b8286015b848110156141ca5780358352918301918301614232565b6000806000610140848603121561425f57600080fd5b83356001600160401b038082111561427657600080fd5b90850190610200828803121561428b57600080fd5b614293613f38565b8235828111156142a257600080fd5b6142ae89828601613ff0565b8252506142be886020850161405f565b60208201526142d088606085016140fe565b60408201526142e28860e085016140fe565b60608201526142f58861016085016140fe565b60808201526101e08301358281111561430d57600080fd5b61431989828601614161565b60a083015250945061432e87602088016141d5565b935061012086013591508082111561434557600080fd5b50614352868287016141ee565b9150509250925092565b60008060006060848603121561437157600080fd5b833592506020840135915060408401356001600160401b0381111561439557600080fd5b840161020081870312156143a857600080fd5b809150509250925092565b600080604083850312156143c657600080fd5b50508035926020909101359150565b80151581146109ed57600080fd5b80356001600160781b03811681146143fa57600080fd5b919050565b60008060006060848603121561441457600080fd5b83356001600160881b038116811461442b57600080fd5b9250602084013561443b816143d5565b9150614449604085016143e3565b90509250925092565b60008083601f84011261446457600080fd5b5081356001600160401b0381111561447b57600080fd5b6020830191508360208260051b850101111561449657600080fd5b9250929050565b600080602083850312156144b057600080fd5b82356001600160401b038111156144c657600080fd5b61109485828601614452565b600060a082840312156141e857600080fd5b600381106109ed57600080fd5b6001600160a01b03811681146109ed57600080fd5b80356143fa816144f1565b60006060828403121561452357600080fd5b61452b613f5a565b90508135614538816144e4565b81526020820135614548816144f1565b806020830152506040820135604082015292915050565b600060a0828403121561457157600080fd5b614579613f5a565b8235815261458a8460208501614511565b602082015261459b608084016143e3565b60408201529392505050565b8060005b60028110156135855781518452602093840193909101906001016145ab565b6145d58282516145a7565b602081015161199360408401826145a7565b6000602080835283516102008083860152614606610220860183613e79565b91508286015160406146248188018380518252602090810151910152565b80880151915061463760808801836145ca565b6060880151915061464c6101008801836145ca565b608088015191506146616101808801836145ca565b60a0880151878503601f190193880193909352825180855292850193850192600092505b808310156146b6576146a284865180518252602090810151910152565b938501939281019260019290920191614685565b5091979650505050505050565b6000602082840312156146d557600080fd5b8135611008816144f1565b6000606082840312156146f257600080fd5b6110088383614511565b600080600080600060a0868803121561471457600080fd5b853561471f816144f1565b945061472d602087016143e3565b935061473b604087016143e3565b9250606086013591506080860135614752816144f1565b809150509295509295909350565b634e487b7160e01b600052602160045260246000fd5b600381106109ed57634e487b7160e01b600052602160045260246000fd5b606081016147a185614776565b9381526001600160a01b0392909216602083015260409091015290565b6000806000606084860312156147d357600080fd5b6147dc846143e3565b92506147ea602085016143e3565b9150604084013590509250925092565b634e487b7160e01b600052603260045260246000fd5b7302930b4b633bab729b6b0b93a2bb0b63632ba1d160651b81526000825161483f816014850160208701613e55565b9190910160140192915050565b6020815260006110086020830184613e79565b60006080828403121561487157600080fd5b614879613f10565b83601f84011261488857600080fd5b604051606081018181106001600160401b03821117156148aa576148aa613efa565b6040528060608501868111156148bf57600080fd5b855b818110156148d95780358352602092830192016148c1565b50918352503560208201529392505050565b634e487b7160e01b600052601160045260246000fd5b80820180821115610ee457610ee46148eb565b805161491f81614776565b82526020818101516001600160a01b031690830152604090810151910152565b60008151808452602080850194508084016000805b8481101561499d578251805189845b600381101561498057825182529187019190870190600101614963565b505050840151606089015260809097019691830191600101614954565b50959695505050505050565b600081518084526020808501945080840160005b838110156149d9578151875295820195908201906001016149bd565b509495945050505050565b600060a0808301888452602088818601526040838187015282895180855260c088019150838b01945060005b81811015614a505785518051845285810151614a2e87860182614914565b508401516001600160781b031660808401529484019491860191600101614a10565b50508681036060880152614a64818a61493f565b9450505050508281036080840152614a7c81856149a9565b98975050505050505050565b600181815b80851115614ac3578160001904821115614aa957614aa96148eb565b80851615614ab657918102915b93841c9390800290614a8d565b509250929050565b600082614ada57506001610ee4565b81614ae757506000610ee4565b8160018114614afd5760028114614b0757614b23565b6001915050610ee4565b60ff841115614b1857614b186148eb565b50506001821b610ee4565b5060208310610133831016604e8410600b8410161715614b46575081810a610ee4565b614b508383614a88565b8060001904821115614b6457614b646148eb565b029392505050565b60006110088383614acb565b6000823560de19833603018112614b8e57600080fd5b9190910192915050565b803568ffffffffffffffffff811681146143fa57600080fd5b600060208284031215614bc357600080fd5b61100882614b98565b80356001600160401b03811681146143fa57600080fd5b600060208284031215614bf557600080fd5b61100882614bcc565b803561ffff811681146143fa57600080fd5b600060208284031215614c2257600080fd5b61100882614bfe565b600060208284031215614c3d57600080fd5b8135611008816144e4565b6000808335601e19843603018112614c5f57600080fd5b8301803591506001600160401b03821115614c7957600080fd5b6020019150600581901b360382131561449657600080fd5b81810381811115610ee457610ee46148eb565b600060208284031215614cb657600080fd5b611008826143e3565b6000808335601e19843603018112614cd657600080fd5b83016020810192503590506001600160401b03811115614cf557600080fd5b8060051b360382131561449657600080fd5b6000808335601e19843603018112614d1e57600080fd5b83016020810192503590506001600160401b03811115614d3d57600080fd5b80360382131561449657600080fd5b81835281816020850137506000828201602090810191909152601f909101601f19169091010190565b81835260006020808501808196508560051b81019150846000805b88811015614e2a578385038a52823560fe19893603018112614db0578283fd5b8801610100608080838937828101359088015260a0808301359088015260c0614ddb81840184614d07565b83838b0152614ded848b018284614d4c565b935050505060e0614e0081840184614d07565b9350888303828a0152614e14838583614d4c565b9d8a019d98505050938701935050600101614d90565b509298975050505050505050565b6020815261ffff614e4883614bfe565b16602082015268ffffffffffffffffff614e6460208401614b98565b16604082015260006040830135614e7a816144e4565b614e8381614776565b806060840152506001600160401b03614e9e60608501614bcc565b166080830152614eb060808401614506565b6001600160a01b03811660a08401525060a083013560c0830152614ed760c0840184614cbf565b60e080850152612e3461010085018284614d75565b634e487b7160e01b600052601260045260246000fd5b600082614f1157614f11614eec565b500690565b60006101008284031215614f2957600080fd5b614f31613f5a565b614f3b848461405f565b8152614f4a84604085016140fe565b602082015261459b8460c0850161405f565b600181811c90821680614f7057607f821691505b6020821081036141e857634e487b7160e01b600052602260045260246000fd5b601f82111561199357600081815260208120601f850160051c81016020861015614fb75750805b601f850160051c820191505b8181101561187057828155600101614fc3565b6001600160401b03831115614fed57614fed613efa565b61500183614ffb8354614f5c565b83614f90565b6000601f841160018114615035576000851561501d5750838201355b600019600387901b1c1916600186901b17835561508f565b600083815260209020601f19861690835b828110156150665786850135825560209485019460019092019101615046565b50868210156150835760001960f88860031b161c19848701351681555b505060018560011b0183555b5050505050565b8160005b60028110156150b75781358382015560209091019060010161509a565b50506040820160005b60028082106150cf5750613585565b8235848301909101556020909101906001016150c0565b6000808335601e198436030181126150fd57600080fd5b8301803591506001600160401b0382111561511757600080fd5b6020019150600681901b360382131561449657600080fd5b6801000000000000000083111561514857615148613efa565b8054838255808410156151b65760016001600160ff1b038281168314615170576151706148eb565b8086168614615181576151816148eb565b5060008381526020812086831b81019084841b015b808210156151b1578282558284830155600282019150615196565b505050505b5060008181526020812083915b8581101561187057823582556020830135600183015560409290920191600291909101906001016151c3565b8135601e1983360301811261520357600080fd5b820180356001600160401b0381111561521b57600080fd5b60208201915080360382131561523057600080fd5b61523b818385614fd6565b505060208201356001820155604082013560028201556152616060830160038301615096565b61527160e0830160078301615096565b6152826101608301600b8301615096565b6152906101e08301836150e6565b6135858183600f860161512f565b6040818337604080820160408401375050565b81835260208301925060008160005b848110156152e8578135865260208083013590870152604095860195909101906001016152c0565b5093949350505050565b83815282602082015260606040820152600061530e8384614d07565b610200606085015261532561026085018284614d4c565b60208601356080860152604086013560a086015291506153429050565b61535260c084016060860161529e565b615363610140840160e0860161529e565b6153756101c08401610160860161529e565b6101e0840135601e1985360301811261538d57600080fd5b84016020810190356001600160401b038111156153a957600080fd5b8060061b36038213156153bb57600080fd5b848303605f1901610240860152614a7c8382846152b1565b60408101818360005b60028110156153fb5781518352602092830192909101906001016153dc565b50505092915050565b60006020828403121561541657600080fd5b5051919050565b6001600160881b038281168282168181028316929181158285048214176153fb576153fb6148eb565b60006001600160881b038084168061546057615460614eec565b92169190910492915050565b6001600160881b0382811682821603908082111561548c5761548c6148eb565b5092915050565b6001600160781b0382811682821603908082111561548c5761548c6148eb565b6000823561021e19833603018112614b8e57600080fd5b60608101818360005b60038110156153fb5781518352602092830192909101906001016154d3565b60608101610ee48284614914565b60006001600160781b038084168061546057615460614eec565b60006080808301878452602087818601526040838187015282885180855260a094508488019150838a0160005b8281101561556357815184529285019290850190600101615547565b5050506060878203818901528189518084528584019150858160051b850101868c0160005b8381101561561a57868303601f1901855281518051610100908560005b60048110156155c25782518252918d0191908d01906001016155a5565b5050508a8201518d860152898201518c860152878201518160c08701526155eb82870182613e79565b9150508c820151915084810360e08601526156068183613e79565b968b01969450505090880190600101615588565b50909f9e505050505050505050505050505050565b813561563a816144e4565b61564381614776565b815460ff821691508160ff1982161783556020840135615662816144f1565b6001600160a81b03199190911690911760089190911b610100600160a81b03161781556040919091013560019190910155565b6000602082840312156156a757600080fd5b8151611008816144f1565b6020808252602b908201527f496e697469616c697a61626c653a20636f6e7472616374206973206e6f74206960408201526a6e697469616c697a696e6760a81b606082015260800190565b61ffff84168152604060208201819052810182905260006001600160fb1b0383111561572857600080fd5b8260051b8085606085013791909101606001949350505050565b6000823560fe19833603018112614b8e57600080fd5b6000610100823603121561576b57600080fd5b615773613f7c565b36601f84011261578257600080fd5b61578a613f9e565b80608085013681111561579c57600080fd5b855b818110156157b657803584526020938401930161579e565b509083523560208301525060a0830135604082015260c08301356001600160401b03808211156157e557600080fd5b6157f136838701613ff0565b606084015260e085013591508082111561580a57600080fd5b5061581736828601613ff0565b60808301525092915050565b803561582e816144e4565b61583781614776565b82526020810135615847816144f1565b6001600160a01b03166020830152604090810135910152565b6001600160a01b038516815260c0810161587d6020830186615823565b6001600160781b03808516608084015280841660a08401525095945050505050565b6001600160a01b038516815260c081016158bc6020830186615823565b608082019390935260a0015292915050565b6000602082840312156158e057600080fd5b8151611008816143d5565b60008251614b8e818460208701613e5556fe30644e72e131a029b85045b68181585d97816a916871ca8d3c208c16d87cfd4730644e72e131a029b85045b68181585d2833e84879b9709143e1f593f0000001496e76616c6964204e6f74652043697068657274657874204172726179204c656e677468a264697066735822122047de62fd13b999b84b5339a8f07d1a965df7755f63641f96c2840674b490e8e864736f6c63430008110033",
  "linkReferences": {
    "contracts/logic/Poseidon.sol": {
      "PoseidonT3": [
        {
          "length": 20,
          "start": 4034
        }
      ],
      "PoseidonT4": [
        {
          "length": 20,
          "start": 4860
        }
      ]
    }
  },
  "deployedLinkReferences": {
    "contracts/logic/Poseidon.sol": {
      "PoseidonT3": [
        {
          "length": 20,
          "start": 4001
        }
      ],
      "PoseidonT4": [
        {
          "length": 20,
          "start": 4827
        }
      ]
    }
  }
}